{
  "contractName": "Supplychain",
  "abi": [
    {
      "inputs": [],
      "payable": false,
      "stateMutability": "nonpayable",
      "type": "constructor"
    },
    {
      "anonymous": false,
      "inputs": [
        {
          "indexed": false,
          "internalType": "uint256",
          "name": "shippingID",
          "type": "uint256"
        },
        {
          "indexed": false,
          "internalType": "uint256",
          "name": "stockRecieved",
          "type": "uint256"
        },
        {
          "indexed": false,
          "internalType": "uint256",
          "name": "stockSentForRoasting",
          "type": "uint256"
        },
        {
          "indexed": false,
          "internalType": "uint256",
          "name": "stockSentInShipping",
          "type": "uint256"
        },
        {
          "indexed": false,
          "internalType": "string",
          "name": "qualityInRoasting",
          "type": "string"
        },
        {
          "indexed": false,
          "internalType": "uint256",
          "name": "shipmentRecievedDate",
          "type": "uint256"
        },
        {
          "indexed": false,
          "internalType": "string",
          "name": "shipmentRecieved",
          "type": "string"
        }
      ],
      "name": "addedRoastingDetails",
      "type": "event"
    },
    {
      "anonymous": false,
      "inputs": [
        {
          "indexed": false,
          "internalType": "uint256",
          "name": "shippingID",
          "type": "uint256"
        },
        {
          "indexed": false,
          "internalType": "uint256",
          "name": "docketNumber",
          "type": "uint256"
        },
        {
          "indexed": false,
          "internalType": "uint256",
          "name": "kgSent",
          "type": "uint256"
        },
        {
          "indexed": false,
          "internalType": "uint256",
          "name": "numberOfBags",
          "type": "uint256"
        },
        {
          "indexed": false,
          "internalType": "string",
          "name": "senderCompany",
          "type": "string"
        },
        {
          "indexed": false,
          "internalType": "string",
          "name": "senderAddress",
          "type": "string"
        },
        {
          "indexed": false,
          "internalType": "string",
          "name": "recieverCompany",
          "type": "string"
        },
        {
          "indexed": false,
          "internalType": "string",
          "name": "recieverAddress",
          "type": "string"
        }
      ],
      "name": "addedShippingDetails",
      "type": "event"
    },
    {
      "anonymous": false,
      "inputs": [
        {
          "indexed": false,
          "internalType": "uint256",
          "name": "shippingID",
          "type": "uint256"
        },
        {
          "indexed": false,
          "internalType": "uint256",
          "name": "bags",
          "type": "uint256"
        },
        {
          "indexed": false,
          "internalType": "uint256",
          "name": "kg",
          "type": "uint256"
        },
        {
          "indexed": false,
          "internalType": "uint256",
          "name": "date",
          "type": "uint256"
        },
        {
          "indexed": false,
          "internalType": "uint256",
          "name": "availableStock",
          "type": "uint256"
        },
        {
          "indexed": false,
          "internalType": "uint256",
          "name": "quantitySenttoRoaster",
          "type": "uint256"
        },
        {
          "indexed": false,
          "internalType": "string",
          "name": "shipmentRecievedBy",
          "type": "string"
        }
      ],
      "name": "addedWarehouseStock",
      "type": "event"
    },
    {
      "constant": true,
      "inputs": [],
      "name": "Quality",
      "outputs": [
        {
          "internalType": "uint256",
          "name": "",
          "type": "uint256"
        }
      ],
      "payable": false,
      "stateMutability": "view",
      "type": "function"
    },
    {
      "constant": true,
      "inputs": [],
      "name": "Quantity",
      "outputs": [
        {
          "internalType": "uint256",
          "name": "",
          "type": "uint256"
        }
      ],
      "payable": false,
      "stateMutability": "view",
      "type": "function"
    },
    {
      "constant": true,
      "inputs": [],
      "name": "countNumber",
      "outputs": [
        {
          "internalType": "uint256",
          "name": "",
          "type": "uint256"
        }
      ],
      "payable": false,
      "stateMutability": "view",
      "type": "function"
    },
    {
      "constant": true,
      "inputs": [],
      "name": "quantityRecievedfromWarehouse",
      "outputs": [
        {
          "internalType": "uint256",
          "name": "",
          "type": "uint256"
        }
      ],
      "payable": false,
      "stateMutability": "view",
      "type": "function"
    },
    {
      "constant": true,
      "inputs": [
        {
          "internalType": "uint256",
          "name": "",
          "type": "uint256"
        }
      ],
      "name": "roasting",
      "outputs": [
        {
          "internalType": "uint256",
          "name": "shippingID",
          "type": "uint256"
        },
        {
          "internalType": "uint256",
          "name": "stockRecieved",
          "type": "uint256"
        },
        {
          "internalType": "uint256",
          "name": "stockSentForRoasting",
          "type": "uint256"
        },
        {
          "internalType": "uint256",
          "name": "stockSentInShipping",
          "type": "uint256"
        },
        {
          "internalType": "string",
          "name": "qualityInRoasting",
          "type": "string"
        },
        {
          "internalType": "uint256",
          "name": "shipmentRecievedDate",
          "type": "uint256"
        },
        {
          "internalType": "string",
          "name": "shipmentRecieved",
          "type": "string"
        }
      ],
      "payable": false,
      "stateMutability": "view",
      "type": "function"
    },
    {
      "constant": true,
      "inputs": [
        {
          "internalType": "uint256",
          "name": "",
          "type": "uint256"
        }
      ],
      "name": "shipment",
      "outputs": [
        {
          "internalType": "uint256",
          "name": "shippingID",
          "type": "uint256"
        },
        {
          "internalType": "uint256",
          "name": "docketNumber",
          "type": "uint256"
        },
        {
          "internalType": "uint256",
          "name": "kgSent",
          "type": "uint256"
        },
        {
          "internalType": "uint256",
          "name": "numberOfBags",
          "type": "uint256"
        },
        {
          "internalType": "string",
          "name": "senderCompany",
          "type": "string"
        },
        {
          "internalType": "string",
          "name": "senderAddress",
          "type": "string"
        },
        {
          "internalType": "string",
          "name": "recieverCompany",
          "type": "string"
        },
        {
          "internalType": "string",
          "name": "recieverAddress",
          "type": "string"
        }
      ],
      "payable": false,
      "stateMutability": "view",
      "type": "function"
    },
    {
      "constant": true,
      "inputs": [],
      "name": "shipped",
      "outputs": [
        {
          "internalType": "bool",
          "name": "",
          "type": "bool"
        }
      ],
      "payable": false,
      "stateMutability": "view",
      "type": "function"
    },
    {
      "constant": true,
      "inputs": [],
      "name": "shippingNumber",
      "outputs": [
        {
          "internalType": "uint256",
          "name": "",
          "type": "uint256"
        }
      ],
      "payable": false,
      "stateMutability": "view",
      "type": "function"
    },
    {
      "constant": true,
      "inputs": [
        {
          "internalType": "uint256",
          "name": "",
          "type": "uint256"
        }
      ],
      "name": "warehouse",
      "outputs": [
        {
          "internalType": "uint256",
          "name": "shippingID",
          "type": "uint256"
        },
        {
          "internalType": "uint256",
          "name": "bags",
          "type": "uint256"
        },
        {
          "internalType": "uint256",
          "name": "kg",
          "type": "uint256"
        },
        {
          "internalType": "uint256",
          "name": "date",
          "type": "uint256"
        },
        {
          "internalType": "uint256",
          "name": "availableStock",
          "type": "uint256"
        },
        {
          "internalType": "uint256",
          "name": "quantitySenttoRoaster",
          "type": "uint256"
        },
        {
          "internalType": "string",
          "name": "shipmentRecievedBy",
          "type": "string"
        }
      ],
      "payable": false,
      "stateMutability": "view",
      "type": "function"
    },
    {
      "constant": false,
      "inputs": [
        {
          "internalType": "uint256",
          "name": "docketNumber",
          "type": "uint256"
        },
        {
          "internalType": "uint256",
          "name": "kgSent",
          "type": "uint256"
        },
        {
          "internalType": "uint256",
          "name": "numberOfBags",
          "type": "uint256"
        },
        {
          "internalType": "string",
          "name": "senderCompany",
          "type": "string"
        },
        {
          "internalType": "string",
          "name": "senderAddress",
          "type": "string"
        },
        {
          "internalType": "string",
          "name": "recieverCompany",
          "type": "string"
        },
        {
          "internalType": "string",
          "name": "recieverAddress",
          "type": "string"
        }
      ],
      "name": "addShippingDetails",
      "outputs": [],
      "payable": false,
      "stateMutability": "nonpayable",
      "type": "function"
    },
    {
      "constant": false,
      "inputs": [
        {
          "internalType": "uint256",
          "name": "bags",
          "type": "uint256"
        },
        {
          "internalType": "uint256",
          "name": "kg",
          "type": "uint256"
        },
        {
          "internalType": "uint256",
          "name": "date",
          "type": "uint256"
        },
        {
          "internalType": "uint256",
          "name": "availableStock",
          "type": "uint256"
        },
        {
          "internalType": "uint256",
          "name": "quantitySenttoRoaster",
          "type": "uint256"
        },
        {
          "internalType": "string",
          "name": "shipmentRecievedBy",
          "type": "string"
        }
      ],
      "name": "addWarehouseStock",
      "outputs": [],
      "payable": false,
      "stateMutability": "nonpayable",
      "type": "function"
    },
    {
      "constant": false,
      "inputs": [
        {
          "internalType": "uint256",
          "name": "stockRecieved",
          "type": "uint256"
        },
        {
          "internalType": "uint256",
          "name": "stockSentForRoasting",
          "type": "uint256"
        },
        {
          "internalType": "uint256",
          "name": "stockSentInShipping",
          "type": "uint256"
        },
        {
          "internalType": "string",
          "name": "qualityInRoasting",
          "type": "string"
        },
        {
          "internalType": "uint256",
          "name": "shipmentRecievedDate",
          "type": "uint256"
        },
        {
          "internalType": "string",
          "name": "shipmentRecieved",
          "type": "string"
        }
      ],
      "name": "addRoastingData",
      "outputs": [],
      "payable": false,
      "stateMutability": "nonpayable",
      "type": "function"
    },
    {
      "constant": false,
      "inputs": [
        {
          "internalType": "uint256",
          "name": "data",
          "type": "uint256"
        }
      ],
      "name": "setCount",
      "outputs": [],
      "payable": false,
      "stateMutability": "nonpayable",
      "type": "function"
    },
    {
      "constant": true,
      "inputs": [],
      "name": "getWarehouseStock",
      "outputs": [
        {
          "internalType": "uint256",
          "name": "shippingID",
          "type": "uint256"
        },
        {
          "internalType": "uint256",
          "name": "bags",
          "type": "uint256"
        },
        {
          "internalType": "uint256",
          "name": "kg",
          "type": "uint256"
        },
        {
          "internalType": "uint256",
          "name": "date",
          "type": "uint256"
        },
        {
          "internalType": "uint256",
          "name": "availableStock",
          "type": "uint256"
        },
        {
          "internalType": "uint256",
          "name": "quantitySenttoRoaster",
          "type": "uint256"
        },
        {
          "internalType": "string",
          "name": "shipmentRecievedBy",
          "type": "string"
        }
      ],
      "payable": false,
      "stateMutability": "view",
      "type": "function"
    },
    {
      "constant": true,
      "inputs": [],
      "name": "getRoastingData",
      "outputs": [
        {
          "internalType": "uint256",
          "name": "shippingID",
          "type": "uint256"
        },
        {
          "internalType": "uint256",
          "name": "stockRecieved",
          "type": "uint256"
        },
        {
          "internalType": "uint256",
          "name": "stockSentForRoasting",
          "type": "uint256"
        },
        {
          "internalType": "uint256",
          "name": "stockSentInShipping",
          "type": "uint256"
        },
        {
          "internalType": "string",
          "name": "qualityInRoasting",
          "type": "string"
        },
        {
          "internalType": "uint256",
          "name": "shipmentRecievedDate",
          "type": "uint256"
        },
        {
          "internalType": "string",
          "name": "shipmentRecieved",
          "type": "string"
        }
      ],
      "payable": false,
      "stateMutability": "view",
      "type": "function"
    },
    {
      "constant": true,
      "inputs": [],
      "name": "getshippingDetails",
      "outputs": [
        {
          "internalType": "uint256",
          "name": "shippingID",
          "type": "uint256"
        },
        {
          "internalType": "uint256",
          "name": "docketNumber",
          "type": "uint256"
        },
        {
          "internalType": "uint256",
          "name": "kgSent",
          "type": "uint256"
        },
        {
          "internalType": "uint256",
          "name": "numberOfBags",
          "type": "uint256"
        },
        {
          "internalType": "string",
          "name": "senderCompany",
          "type": "string"
        },
        {
          "internalType": "string",
          "name": "senderAddress",
          "type": "string"
        },
        {
          "internalType": "string",
          "name": "recieverCompany",
          "type": "string"
        },
        {
          "internalType": "string",
          "name": "recieverAddress",
          "type": "string"
        }
      ],
      "payable": false,
      "stateMutability": "view",
      "type": "function"
    }
  ],
  "bytecode": "0x60806040523480156200001157600080fd5b50620001006045604d60036040518060400160405280600781526020017f7373656e646572000000000000000000000000000000000000000000000000008152506040518060400160405280600981526020017f73656e64657241646400000000000000000000000000000000000000000000008152506040518060400160405280600981526020017f72726563696576657200000000000000000000000000000000000000000000008152506040518060400160405280600d81526020017f7272726563696576657241646400000000000000000000000000000000000000815250620001dd60201b60201c565b620001516045601e611b396014600a6040518060400160405280600881526020017f416a6179566f72610000000000000000000000000000000000000000000000008152506200050160201b60201c565b620001d76045601e60146040518060400160405280600781526020017f617261626963610000000000000000000000000000000000000000000000000081525062018b006040518060400160405280600d81526020017f416c69204d6f68616d6d616469000000000000000000000000000000000000008152506200068b60201b60201c565b62000941565b6002600081548092919060010191905055506040518061010001604052806002548152602001888152602001878152602001868152602001858152602001848152602001838152602001828152506007600060025481526020019081526020016000206000820151816000015560208201518160010155604082015181600201556060820151816003015560808201518160040190805190602001906200028692919062000892565b5060a0820151816005019080519060200190620002a592919062000892565b5060c0820151816006019080519060200190620002c492919062000892565b5060e0820151816007019080519060200190620002e392919062000892565b509050507fc87a7b583ce3398385b0637b50665152951f9cf3a1b57e6bf86a339d0ad3fa7f600254888888888888886040518089815260200188815260200187815260200186815260200180602001806020018060200180602001858103855289818151815260200191508051906020019080838360005b83811015620003785780820151818401526020810190506200035b565b50505050905090810190601f168015620003a65780820380516001836020036101000a031916815260200191505b50858103845288818151815260200191508051906020019080838360005b83811015620003e1578082015181840152602081019050620003c4565b50505050905090810190601f1680156200040f5780820380516001836020036101000a031916815260200191505b50858103835287818151815260200191508051906020019080838360005b838110156200044a5780820151818401526020810190506200042d565b50505050905090810190601f168015620004785780820380516001836020036101000a031916815260200191505b50858103825286818151815260200191508051906020019080838360005b83811015620004b357808201518184015260208101905062000496565b50505050905090810190601f168015620004e15780820380516001836020036101000a031916815260200191505b509c5050505050505050505050505060405180910390a150505050505050565b6002546002819055506040518060e00160405280600254815260200187815260200186815260200185815260200184815260200183815260200182815250600660006002548152602001908152602001600020600082015181600001556020820151816001015560408201518160020155606082015181600301556080820151816004015560a0820151816005015560c0820151816006019080519060200190620005ae92919062000892565b509050507f04035342d9643c80159d2ab0969bbc1b92a5536176154430ed8fbd0edc64da016002548787878787876040518088815260200187815260200186815260200185815260200184815260200183815260200180602001828103825283818151815260200191508051906020019080838360005b838110156200064257808201518184015260208101905062000625565b50505050905090810190601f168015620006705780820380516001836020036101000a031916815260200191505b509850505050505050505060405180910390a1505050505050565b6002546002819055506040518060e001604052806002548152602001878152602001868152602001858152602001848152602001838152602001828152506008600060025481526020019081526020016000206000820151816000015560208201518160010155604082015181600201556060820151816003015560808201518160040190805190602001906200072492919062000892565b5060a0820151816005015560c08201518160060190805190602001906200074d92919062000892565b509050507fcff62d7adadcc2bb4b9c3c9b0ec91baa4169223d66a73843fbf22a00bd54afd3600254878787878787604051808881526020018781526020018681526020018581526020018060200184815260200180602001838103835286818151815260200191508051906020019080838360005b83811015620007df578082015181840152602081019050620007c2565b50505050905090810190601f1680156200080d5780820380516001836020036101000a031916815260200191505b50838103825284818151815260200191508051906020019080838360005b83811015620008485780820151818401526020810190506200082b565b50505050905090810190601f168015620008765780820380516001836020036101000a031916815260200191505b50995050505050505050505060405180910390a1505050505050565b828054600181600116156101000203166002900490600052602060002090601f016020900481019282601f10620008d557805160ff191683800117855562000906565b8280016001018555821562000906579182015b8281111562000905578251825591602001919060010190620008e8565b5b50905062000915919062000919565b5090565b6200093e91905b808211156200093a57600081600090555060010162000920565b5090565b90565b61226e80620009516000396000f3fe608060405234801561001057600080fd5b50600436106101005760003560e01c8063b0ba534911610097578063cef73c2e11610066578063cef73c2e14610b3d578063d14e62b814610c2a578063d601b63514610c58578063f89b078314610d8e57610100565b8063b0ba534914610841578063b147068a14610adf578063ba446ae914610afd578063c33664d014610b1f57610100565b80638a284a7c116100d35780638a284a7c146105de57806395ccb57c1461068b578063a47cde75146106a9578063b04c172a1461082357610100565b806327bdd1e9146101055780632d4e01e2146101d65780634e543f9f146103b95780636fa52a7b146103d7575b600080fd5b6101316004803603602081101561011b57600080fd5b8101908080359060200190929190505050610ea0565b6040518088815260200187815260200186815260200185815260200184815260200183815260200180602001828103825283818151815260200191508051906020019080838360005b8381101561019557808201518184015260208101905061017a565b50505050905090810190601f1680156101c25780820380516001836020036101000a031916815260200191505b509850505050505050505060405180910390f35b6101de610f7a565b6040518089815260200188815260200187815260200186815260200180602001806020018060200180602001858103855289818151815260200191508051906020019080838360005b83811015610242578082015181840152602081019050610227565b50505050905090810190601f16801561026f5780820380516001836020036101000a031916815260200191505b50858103845288818151815260200191508051906020019080838360005b838110156102a857808201518184015260208101905061028d565b50505050905090810190601f1680156102d55780820380516001836020036101000a031916815260200191505b50858103835287818151815260200191508051906020019080838360005b8381101561030e5780820151818401526020810190506102f3565b50505050905090810190601f16801561033b5780820380516001836020036101000a031916815260200191505b50858103825286818151815260200191508051906020019080838360005b83811015610374578082015181840152602081019050610359565b50505050905090810190601f1680156103a15780820380516001836020036101000a031916815260200191505b509c5050505050505050505050505060405180910390f35b6103c16112b0565b6040518082815260200191505060405180910390f35b610403600480360360208110156103ed57600080fd5b81019080803590602001909291905050506112b6565b6040518089815260200188815260200187815260200186815260200180602001806020018060200180602001858103855289818151815260200191508051906020019080838360005b8381101561046757808201518184015260208101905061044c565b50505050905090810190601f1680156104945780820380516001836020036101000a031916815260200191505b50858103845288818151815260200191508051906020019080838360005b838110156104cd5780820151818401526020810190506104b2565b50505050905090810190601f1680156104fa5780820380516001836020036101000a031916815260200191505b50858103835287818151815260200191508051906020019080838360005b83811015610533578082015181840152602081019050610518565b50505050905090810190601f1680156105605780820380516001836020036101000a031916815260200191505b50858103825286818151815260200191508051906020019080838360005b8381101561059957808201518184015260208101905061057e565b50505050905090810190601f1680156105c65780820380516001836020036101000a031916815260200191505b509c5050505050505050505050505060405180910390f35b6105e661155e565b6040518088815260200187815260200186815260200185815260200184815260200183815260200180602001828103825283818151815260200191508051906020019080838360005b8381101561064a57808201518184015260208101905061062f565b50505050905090810190601f1680156106775780820380516001836020036101000a031916815260200191505b509850505050505050505060405180910390f35b6106936116af565b6040518082815260200191505060405180910390f35b610821600480360360c08110156106bf57600080fd5b81019080803590602001909291908035906020019092919080359060200190929190803590602001906401000000008111156106fa57600080fd5b82018360208201111561070c57600080fd5b8035906020019184600183028401116401000000008311171561072e57600080fd5b91908080601f016020809104026020016040519081016040528093929190818152602001838380828437600081840152601f19601f820116905080830192505050505050509192919290803590602001909291908035906020019064010000000081111561079b57600080fd5b8201836020820111156107ad57600080fd5b803590602001918460018302840111640100000000831117156107cf57600080fd5b91908080601f016020809104026020016040519081016040528093929190818152602001838380828437600081840152601f19601f8201169050808301925050505050505091929192905050506116b5565b005b61082b6118b2565b6040518082815260200191505060405180910390f35b610add600480360360e081101561085757600080fd5b810190808035906020019092919080359060200190929190803590602001909291908035906020019064010000000081111561089257600080fd5b8201836020820111156108a457600080fd5b803590602001918460018302840111640100000000831117156108c657600080fd5b91908080601f016020809104026020016040519081016040528093929190818152602001838380828437600081840152601f19601f8201169050808301925050505050505091929192908035906020019064010000000081111561092957600080fd5b82018360208201111561093b57600080fd5b8035906020019184600183028401116401000000008311171561095d57600080fd5b91908080601f016020809104026020016040519081016040528093929190818152602001838380828437600081840152601f19601f820116905080830192505050505050509192919290803590602001906401000000008111156109c057600080fd5b8201836020820111156109d257600080fd5b803590602001918460018302840111640100000000831117156109f457600080fd5b91908080601f016020809104026020016040519081016040528093929190818152602001838380828437600081840152601f19601f82011690508083019250505050505050919291929080359060200190640100000000811115610a5757600080fd5b820183602082011115610a6957600080fd5b80359060200191846001830284011164010000000083111715610a8b57600080fd5b91908080601f016020809104026020016040519081016040528093929190818152602001838380828437600081840152601f19601f8201169050808301925050505050505091929192905050506118b8565b005b610ae7611bc8565b6040518082815260200191505060405180910390f35b610b05611bce565b604051808215151515815260200191505060405180910390f35b610b27611be1565b6040518082815260200191505060405180910390f35b610c28600480360360c0811015610b5357600080fd5b81019080803590602001909291908035906020019092919080359060200190929190803590602001909291908035906020019092919080359060200190640100000000811115610ba257600080fd5b820183602082011115610bb457600080fd5b80359060200191846001830284011164010000000083111715610bd657600080fd5b91908080601f016020809104026020016040519081016040528093929190818152602001838380828437600081840152601f19601f820116905080830192505050505050509192919290505050611be7565b005b610c5660048036036020811015610c4057600080fd5b8101908080359060200190929190505050611d6c565b005b610c8460048036036020811015610c6e57600080fd5b8101908080359060200190929190505050611d76565b604051808881526020018781526020018681526020018581526020018060200184815260200180602001838103835286818151815260200191508051906020019080838360005b83811015610ce6578082015181840152602081019050610ccb565b50505050905090810190601f168015610d135780820380516001836020036101000a031916815260200191505b50838103825284818151815260200191508051906020019080838360005b83811015610d4c578082015181840152602081019050610d31565b50505050905090810190601f168015610d795780820380516001836020036101000a031916815260200191505b50995050505050505050505060405180910390f35b610d96611ee8565b604051808881526020018781526020018681526020018581526020018060200184815260200180602001838103835286818151815260200191508051906020019080838360005b83811015610df8578082015181840152602081019050610ddd565b50505050905090810190601f168015610e255780820380516001836020036101000a031916815260200191505b50838103825284818151815260200191508051906020019080838360005b83811015610e5e578082015181840152602081019050610e43565b50505050905090810190601f168015610e8b5780820380516001836020036101000a031916815260200191505b50995050505050505050505060405180910390f35b6006602052806000526040600020600091509050806000015490806001015490806002015490806003015490806004015490806005015490806006018054600181600116156101000203166002900480601f016020809104026020016040519081016040528092919081815260200182805460018160011615610100020316600290048015610f705780601f10610f4557610100808354040283529160200191610f70565b820191906000526020600020905b815481529060010190602001808311610f5357829003601f168201915b5050505050905087565b600080600080606080606080610f8e6120d5565b6007600060055481526020019081526020016000206040518061010001604052908160008201548152602001600182015481526020016002820154815260200160038201548152602001600482018054600181600116156101000203166002900480601f0160208091040260200160405190810160405280929190818152602001828054600181600116156101000203166002900480156110705780601f1061104557610100808354040283529160200191611070565b820191906000526020600020905b81548152906001019060200180831161105357829003601f168201915b50505050508152602001600582018054600181600116156101000203166002900480601f0160208091040260200160405190810160405280929190818152602001828054600181600116156101000203166002900480156111125780601f106110e757610100808354040283529160200191611112565b820191906000526020600020905b8154815290600101906020018083116110f557829003601f168201915b50505050508152602001600682018054600181600116156101000203166002900480601f0160208091040260200160405190810160405280929190818152602001828054600181600116156101000203166002900480156111b45780601f10611189576101008083540402835291602001916111b4565b820191906000526020600020905b81548152906001019060200180831161119757829003601f168201915b50505050508152602001600782018054600181600116156101000203166002900480601f0160208091040260200160405190810160405280929190818152602001828054600181600116156101000203166002900480156112565780601f1061122b57610100808354040283529160200191611256565b820191906000526020600020905b81548152906001019060200180831161123957829003601f168201915b5050505050815250509050806000015181602001518260400151836060015184608001518560a001518660c001518760e0015183935082925081915080905098509850985098509850985098509850509091929394959697565b60015481565b6007602052806000526040600020600091509050806000015490806001015490806002015490806003015490806004018054600181600116156101000203166002900480601f01602080910402602001604051908101604052809291908181526020018280546001816001161561010002031660029004801561137a5780601f1061134f5761010080835404028352916020019161137a565b820191906000526020600020905b81548152906001019060200180831161135d57829003601f168201915b505050505090806005018054600181600116156101000203166002900480601f0160208091040260200160405190810160405280929190818152602001828054600181600116156101000203166002900480156114185780601f106113ed57610100808354040283529160200191611418565b820191906000526020600020905b8154815290600101906020018083116113fb57829003601f168201915b505050505090806006018054600181600116156101000203166002900480601f0160208091040260200160405190810160405280929190818152602001828054600181600116156101000203166002900480156114b65780601f1061148b576101008083540402835291602001916114b6565b820191906000526020600020905b81548152906001019060200180831161149957829003601f168201915b505050505090806007018054600181600116156101000203166002900480601f0160208091040260200160405190810160405280929190818152602001828054600181600116156101000203166002900480156115545780601f1061152957610100808354040283529160200191611554565b820191906000526020600020905b81548152906001019060200180831161153757829003601f168201915b5050505050905088565b600080600080600080606061157161211a565b6006600060055481526020019081526020016000206040518060e0016040529081600082015481526020016001820154815260200160028201548152602001600382015481526020016004820154815260200160058201548152602001600682018054600181600116156101000203166002900480601f0160208091040260200160405190810160405280929190818152602001828054600181600116156101000203166002900480156116665780601f1061163b57610100808354040283529160200191611666565b820191906000526020600020905b81548152906001019060200180831161164957829003601f168201915b5050505050815250509050806000015181602001518260400151836060015184608001518560a001518660c0015180905097509750975097509750975097505090919293949596565b60055481565b6002546002819055506040518060e0016040528060025481526020018781526020018681526020018581526020018481526020018381526020018281525060086000600254815260200190815260200160002060008201518160000155602082015181600101556040820151816002015560608201518160030155608082015181600401908051906020019061174c929190612157565b5060a0820151816005015560c0820151816006019080519060200190611773929190612157565b509050507fcff62d7adadcc2bb4b9c3c9b0ec91baa4169223d66a73843fbf22a00bd54afd3600254878787878787604051808881526020018781526020018681526020018581526020018060200184815260200180602001838103835286818151815260200191508051906020019080838360005b838110156118035780820151818401526020810190506117e8565b50505050905090810190601f1680156118305780820380516001836020036101000a031916815260200191505b50838103825284818151815260200191508051906020019080838360005b8381101561186957808201518184015260208101905061184e565b50505050905090810190601f1680156118965780820380516001836020036101000a031916815260200191505b50995050505050505050505060405180910390a1505050505050565b60025481565b60026000815480929190600101919050555060405180610100016040528060025481526020018881526020018781526020018681526020018581526020018481526020018381526020018281525060076000600254815260200190815260200160002060008201518160000155602082015181600101556040820151816002015560608201518160030155608082015181600401908051906020019061195f929190612157565b5060a082015181600501908051906020019061197c929190612157565b5060c0820151816006019080519060200190611999929190612157565b5060e08201518160070190805190602001906119b6929190612157565b509050507fc87a7b583ce3398385b0637b50665152951f9cf3a1b57e6bf86a339d0ad3fa7f600254888888888888886040518089815260200188815260200187815260200186815260200180602001806020018060200180602001858103855289818151815260200191508051906020019080838360005b83811015611a49578082015181840152602081019050611a2e565b50505050905090810190601f168015611a765780820380516001836020036101000a031916815260200191505b50858103845288818151815260200191508051906020019080838360005b83811015611aaf578082015181840152602081019050611a94565b50505050905090810190601f168015611adc5780820380516001836020036101000a031916815260200191505b50858103835287818151815260200191508051906020019080838360005b83811015611b15578082015181840152602081019050611afa565b50505050905090810190601f168015611b425780820380516001836020036101000a031916815260200191505b50858103825286818151815260200191508051906020019080838360005b83811015611b7b578082015181840152602081019050611b60565b50505050905090810190601f168015611ba85780820380516001836020036101000a031916815260200191505b509c5050505050505050505050505060405180910390a150505050505050565b60005481565b600460009054906101000a900460ff1681565b60035481565b6002546002819055506040518060e00160405280600254815260200187815260200186815260200185815260200184815260200183815260200182815250600660006002548152602001908152602001600020600082015181600001556020820151816001015560408201518160020155606082015181600301556080820151816004015560a0820151816005015560c0820151816006019080519060200190611c92929190612157565b509050507f04035342d9643c80159d2ab0969bbc1b92a5536176154430ed8fbd0edc64da016002548787878787876040518088815260200187815260200186815260200185815260200184815260200183815260200180602001828103825283818151815260200191508051906020019080838360005b83811015611d24578082015181840152602081019050611d09565b50505050905090810190601f168015611d515780820380516001836020036101000a031916815260200191505b509850505050505050505060405180910390a1505050505050565b8060058190555050565b6008602052806000526040600020600091509050806000015490806001015490806002015490806003015490806004018054600181600116156101000203166002900480601f016020809104026020016040519081016040528092919081815260200182805460018160011615610100020316600290048015611e3a5780601f10611e0f57610100808354040283529160200191611e3a565b820191906000526020600020905b815481529060010190602001808311611e1d57829003601f168201915b505050505090806005015490806006018054600181600116156101000203166002900480601f016020809104026020016040519081016040528092919081815260200182805460018160011615610100020316600290048015611ede5780601f10611eb357610100808354040283529160200191611ede565b820191906000526020600020905b815481529060010190602001808311611ec157829003601f168201915b5050505050905087565b600080600080606060006060611efc6121d7565b6008600060055481526020019081526020016000206040518060e001604052908160008201548152602001600182015481526020016002820154815260200160038201548152602001600482018054600181600116156101000203166002900480601f016020809104026020016040519081016040528092919081815260200182805460018160011615610100020316600290048015611fdd5780601f10611fb257610100808354040283529160200191611fdd565b820191906000526020600020905b815481529060010190602001808311611fc057829003601f168201915b5050505050815260200160058201548152602001600682018054600181600116156101000203166002900480601f0160208091040260200160405190810160405280929190818152602001828054600181600116156101000203166002900480156120895780601f1061205e57610100808354040283529160200191612089565b820191906000526020600020905b81548152906001019060200180831161206c57829003601f168201915b5050505050815250509050806000015181602001518260400151836060015184608001518560a001518660c0015182925080905097509750975097509750975097505090919293949596565b60405180610100016040528060008152602001600081526020016000815260200160008152602001606081526020016060815260200160608152602001606081525090565b6040518060e00160405280600081526020016000815260200160008152602001600081526020016000815260200160008152602001606081525090565b828054600181600116156101000203166002900490600052602060002090601f016020900481019282601f1061219857805160ff19168380011785556121c6565b828001600101855582156121c6579182015b828111156121c55782518255916020019190600101906121aa565b5b5090506121d39190612214565b5090565b6040518060e00160405280600081526020016000815260200160008152602001600081526020016060815260200160008152602001606081525090565b61223691905b8082111561223257600081600090555060010161221a565b5090565b9056fea265627a7a7231582028c4debd37a61336822a18457cb4a0f50f0f05ad3cbf10f768dc35df04d1093a64736f6c63430005100032",
  "source": "pragma solidity ^0.5.16;\n\ncontract Supplychain\n{\n    uint public Quality;\n    uint public Quantity;\n    uint public shippingNumber;\n    uint public quantityRecievedfromWarehouse;\n    bool public shipped;\n\n    uint public countNumber;\n\n    struct warehouseStock\n    {\n        uint shippingID;\n        uint bags;\n        uint kg;\n        uint date;\n        uint availableStock;\n        uint quantitySenttoRoaster;\n        string shipmentRecievedBy;\n    }\n\n    struct shippingDetails\n    {\n        uint shippingID;\n        uint docketNumber;\n        uint kgSent;\n        uint numberOfBags;\n\n        string senderCompany;\n        string senderAddress;\n        string recieverCompany;\n        string recieverAddress;\n\n    }\n\n    struct roastingDetails\n    {\n        uint shippingID;\n        uint stockRecieved;\n        uint stockSentForRoasting;\n        uint stockSentInShipping;\n        string qualityInRoasting;\n        uint shipmentRecievedDate;\n        string shipmentRecieved;\n    }\n\n    mapping(uint => warehouseStock) public warehouse;\n\n    mapping(uint => shippingDetails) public shipment;\n\n    mapping (uint => roastingDetails) public roasting;\n\n    constructor() public{\n        addShippingDetails(69, 77,  3, 'ssender', 'senderAdd','rreciever', 'rrrecieverAdd');\n\n        addWarehouseStock(69, 30, 6969, 20, 10,  'AjayVora');\n\n        addRoastingData(69, 30, 20, \"arabica\", 101120, \"Ali Mohammadi\");\n\n    }\n\n    event addedShippingDetails\n    (\n        uint shippingID,\n        uint docketNumber,\n        uint kgSent, \n        uint numberOfBags,\n        string senderCompany,\n        string senderAddress,\n        string recieverCompany,\n        string recieverAddress\n    );\n\n    event addedWarehouseStock\n    (\n        uint shippingID,\n        uint bags,\n        uint kg,\n        uint date,\n        uint availableStock,\n        uint quantitySenttoRoaster,\n        string shipmentRecievedBy\n    );\n\n    event addedRoastingDetails\n    (\n        uint shippingID,\n        uint stockRecieved,\n        uint stockSentForRoasting,\n        uint stockSentInShipping,\n        string qualityInRoasting,\n        uint shipmentRecievedDate,\n        string shipmentRecieved\n    );\n\n//Adding shipping details\n    function addShippingDetails(uint docketNumber, uint kgSent,  uint numberOfBags, string memory senderCompany, string memory senderAddress, string memory recieverCompany, string memory recieverAddress) public \n    {\n        shippingNumber ++;\n\n        shipment[shippingNumber] =  shippingDetails(shippingNumber, docketNumber, kgSent, numberOfBags,  senderCompany,senderAddress,recieverCompany, recieverAddress);\n        emit addedShippingDetails(shippingNumber, docketNumber, kgSent, numberOfBags, senderCompany,senderAddress, recieverCompany, recieverAddress);\n    }\n\n//adding kg of stock recieved\n    function addWarehouseStock(uint bags, uint kg, uint date, uint availableStock, uint quantitySenttoRoaster,string memory shipmentRecievedBy) public\n    {\n        shippingNumber = shippingNumber;\n        warehouse[shippingNumber] = warehouseStock(shippingNumber, bags, kg, date, availableStock, quantitySenttoRoaster, shipmentRecievedBy);\n        emit addedWarehouseStock(shippingNumber, bags, kg, date, availableStock, quantitySenttoRoaster, shipmentRecievedBy);\n    }\n\n    //function for roastingData\n    function addRoastingData(uint stockRecieved, uint stockSentForRoasting, uint stockSentInShipping, string memory qualityInRoasting,uint shipmentRecievedDate, string memory shipmentRecieved) public\n    {\n        shippingNumber = shippingNumber;\n        roasting[shippingNumber] =  roastingDetails(shippingNumber, stockRecieved, stockSentForRoasting, stockSentInShipping, qualityInRoasting,shipmentRecievedDate, shipmentRecieved);\n        emit addedRoastingDetails(shippingNumber, stockRecieved, stockSentForRoasting, stockSentInShipping, qualityInRoasting,shipmentRecievedDate, shipmentRecieved);\n    }\n\n    // function toggleShipped(uint shippingNumber) public {\n    //     Supplychain memory _\n    // }\n\nfunction setCount(uint data) public \n{\n    countNumber = data;\n}\n\n\nfunction getWarehouseStock() view external returns (\n        uint shippingID,\n        uint bags,\n        uint kg,\n        uint date,\n        uint availableStock,\n        uint quantitySenttoRoaster,\n        string memory shipmentRecievedBy)\n        {\n\n            warehouseStock memory w = warehouse[countNumber];\n\n            return (w.shippingID, w.bags, w.kg, w.date, w.availableStock, w.quantitySenttoRoaster, w.shipmentRecievedBy);\n        }\n\n        /////////////////////////////////////////\n\n        function getRoastingData() view external returns (\n        uint shippingID,\n        uint stockRecieved,\n        uint stockSentForRoasting,\n        uint stockSentInShipping,\n        string memory qualityInRoasting,\n        uint shipmentRecievedDate,\n        string memory shipmentRecieved)\n        {\n\n            roastingDetails memory r = roasting[countNumber];\n\n            return (r.shippingID,\n        r.stockRecieved,\n        r.stockSentForRoasting,\n        r.stockSentInShipping,\n        r.qualityInRoasting,\n        r.shipmentRecievedDate,\n        r.shipmentRecieved);\n        }\n\n////////////////////////////////////////////////\n\n        function getshippingDetails() view external returns (\n        uint shippingID,\n        uint docketNumber,\n        uint kgSent, \n        uint numberOfBags,\n        string memory senderCompany,\n        string memory senderAddress,\n        string memory recieverCompany,\n        string memory recieverAddress)\n        {\n\n            shippingDetails memory s = shipment[countNumber];\n\n            return (s.shippingID,\n        s.docketNumber,\n        s.kgSent, \n        s.numberOfBags,\n        s.senderCompany,\n        s.senderAddress,\n        s.recieverCompany,\n        s.recieverAddress);\n        }\n\n}\n",
  "sourcePath": "/home/ajay/Documents/SupplyDrizzle/contracts/Supplychain.sol",
  "compiler": {
    "name": "solc",
    "version": "0.5.16+commit.9c3226ce.Emscripten.clang"
  },
  "schemaVersion": "3.2.5",
  "updatedAt": "2020-10-30T21:35:42.238Z",
  "networkType": "ethereum",
  "devdoc": {
    "methods": {}
  },
  "userdoc": {
    "methods": {
      "getRoastingData()": {
        "notice": "//////////////////////////////////////"
      },
      "getshippingDetails()": {
        "notice": "/////////////////////////////////////////////"
      }
    }
  }
}